{
    "txid": "7eb836c3adbf3f319601d6f7ded780e879274197f7bdc536366bbd7c04ec7233",
    "hash": "7eb836c3adbf3f319601d6f7ded780e879274197f7bdc536366bbd7c04ec7233",
    "version": 2,
    "size": 224,
    "vsize": 224,
    "locktime": 1583,
    "vin": [
	        {dd495738b3603f0ef1698b628f48eeec16c9019012102f48b2b0f5489f20e7123047c41b5f8abaded9640344403e1be613c9b19616761"
            },
            "sequence": 4294967294
        }
    ],
    "vout": [
        {
            "value": 79.99991040,
            "n": 0,
            "scriptPubKey": {
                "asm": "OP_DUP OP_HASH160 d20885dcff07a118b06762f209154b9d11b6ed8e OP_EQUALVERIFY OP_CHECKSIG",
                "hex": "76a914d20885dcff07a118b06762f209154b9d11b6ed8e88ac",
                "reqSigs": 1,
                "type": "pubkeyhash",
                "addresses": [
                    "1L9Z7U2x6zKVqaPDEGH9BKAUt5v6ZsLWVU"
                ]
            }
        }, 
        {
            "value": 10.00000000,
            "n": 1,
            "scriptPubKey": {
                "asm": "OP_HASH160 4ccd8b98f3f3babd426db47f1fafbd6ad0f041f0 OP_EQUAL",
                "hex": "a9144ccd8b98f3f3babd426db47f1fafbd6ad0f041f087",
                "reqSigs": 1,
                "type": "scripthash",
                "addresses": [
                    "38h7WfHQEBuFNQTR99Vxbh3dwNdRkAAV9W"
                ]
            }
        }
    ],
    "hex": "020000000196edb386e4413fce8910e83ff1bd782a3bb82a2e8a628f3f6839915ea285d68c010000006b4830450221008eae618209f4645496969fe7d449d540fd8c9d4314afad9dee84ce53476b2f38022060868eac415cd944d64d69322dd495738b3603f0ef1698b628f48eeec16c9019012102f48b2b0f5489f20e7123047c41b5f8abaded9640344403e1be613c9b19616761feffffff02002dd6dc010000001976a914d20885dcff07a118b06762f209154b9d11b6ed8e88ac00ca9a3b0000000017a9144ccd8b98f3f3babd426db47f1fafbd6ad0f041f0872f060000"
}
